{
  "transactions": [
    {
      "hash": "0x3680298c5dc1f66fdc374c4e8cd5f8baf63d09eb04dddee120c628be268803d9",
      "transactionType": "CALL",
      "contractName": "LinkToken",
      "contractAddress": "0x779877A7B0D9E8603169DdbD7836e478b4624789",
      "function": "transferAndCall(address,uint256,bytes):(bool)",
      "arguments": [
        "0x8103B0A8A00be2DDC778e6e7eaa21791Cd364625",
        "100000000000000000",
        "0x0000000000000000000000000000000000000000000000000000000000002149"
      ],
      "transaction": {
        "type": "0x02",
        "from": "0x7064d4726f4b5b23e0b19de8ceb786f3eb1a5c85",
        "to": "0x779877a7b0d9e8603169ddbd7836e478b4624789",
        "gas": "0x1b43f",
        "value": "0x0",
        "data": "0x4000aea00000000000000000000000008103b0a8a00be2ddc778e6e7eaa21791cd364625000000000000000000000000000000000000000000000000016345785d8a0000000000000000000000000000000000000000000000000000000000000000006000000000000000000000000000000000000000000000000000000000000000200000000000000000000000000000000000000000000000000000000000002149",
        "nonce": "0x8",
        "accessList": []
      },
      "additionalContracts": [],
      "isFixedGasLimit": false
    }
  ],
  "receipts": [
    {
      "transactionHash": "0x3680298c5dc1f66fdc374c4e8cd5f8baf63d09eb04dddee120c628be268803d9",
      "transactionIndex": "0x3d",
      "blockHash": "0x65625e9f60e195b09dc1c6472fc6400115cfca90206e02e78c185a080d7342e2",
      "blockNumber": "0x4d7b40",
      "from": "0x7064D4726F4b5b23e0b19dE8cEB786F3EB1a5C85",
      "to": "0x779877A7B0D9E8603169DdbD7836e478b4624789",
      "cumulativeGasUsed": "0x5d5441",
      "gasUsed": "0x12a4a",
      "contractAddress": null,
      "logs": [
        {
          "address": "0x779877A7B0D9E8603169DdbD7836e478b4624789",
          "topics": [
            "0xddf252ad1be2c89b69c2b068fc378daa952ba7f163c4a11628f55a4df523b3ef",
            "0x0000000000000000000000007064d4726f4b5b23e0b19de8ceb786f3eb1a5c85",
            "0x0000000000000000000000008103b0a8a00be2ddc778e6e7eaa21791cd364625"
          ],
          "data": "0x000000000000000000000000000000000000000000000000016345785d8a0000",
          "blockHash": "0x65625e9f60e195b09dc1c6472fc6400115cfca90206e02e78c185a080d7342e2",
          "blockNumber": "0x4d7b40",
          "transactionHash": "0x3680298c5dc1f66fdc374c4e8cd5f8baf63d09eb04dddee120c628be268803d9",
          "transactionIndex": "0x3d",
          "logIndex": "0x65",
          "removed": false
        },
        {
          "address": "0x779877A7B0D9E8603169DdbD7836e478b4624789",
          "topics": [
            "0xe19260aff97b920c7df27010903aeb9c8d2be5d310a2c67824cf3f15396e4c16",
            "0x0000000000000000000000007064d4726f4b5b23e0b19de8ceb786f3eb1a5c85",
            "0x0000000000000000000000008103b0a8a00be2ddc778e6e7eaa21791cd364625"
          ],
          "data": "0x000000000000000000000000000000000000000000000000016345785d8a0000000000000000000000000000000000000000000000000000000000000000004000000000000000000000000000000000000000000000000000000000000000200000000000000000000000000000000000000000000000000000000000002149",
          "blockHash": "0x65625e9f60e195b09dc1c6472fc6400115cfca90206e02e78c185a080d7342e2",
          "blockNumber": "0x4d7b40",
          "transactionHash": "0x3680298c5dc1f66fdc374c4e8cd5f8baf63d09eb04dddee120c628be268803d9",
          "transactionIndex": "0x3d",
          "logIndex": "0x66",
          "removed": false
        },
        {
          "address": "0x8103B0A8A00be2DDC778e6e7eaa21791Cd364625",
          "topics": [
            "0xd39ec07f4e209f627a4c427971473820dc129761ba28de8906bd56f57101d4f8",
            "0x0000000000000000000000000000000000000000000000000000000000002149"
          ],
          "data": "0x0000000000000000000000000000000000000000000000000000000000000000000000000000000000000000000000000000000000000000016345785d8a0000",
          "blockHash": "0x65625e9f60e195b09dc1c6472fc6400115cfca90206e02e78c185a080d7342e2",
          "blockNumber": "0x4d7b40",
          "transactionHash": "0x3680298c5dc1f66fdc374c4e8cd5f8baf63d09eb04dddee120c628be268803d9",
          "transactionIndex": "0x3d",
          "logIndex": "0x67",
          "removed": false
        }
      ],
      "status": "0x1",
      "logsBloom": "0x0000001400000000000000000000000000000000000000020000000002000000000000000000800000000000000080000000000000000000000000000000000000000000000000000000000800000000000000100000000000002000000400000000000000000000000000000004000000000000400000000000001000000000000000000c000020000000000000800010000020000000000000000000000000000000000000000000000000000000000000000000000000000400000000000000000002000000000000000000000000000000000000000100000000000400000000000000000000200000000000000000000000000000000000000000000000",
      "type": "0x2",
      "effectiveGasPrice": "0x111dd4817d"
    }
  ],
  "libraries": [],
  "pending": [],
  "returns": {},
  "timestamp": 1705140304,
  "chain": 11155111,
  "multi": false,
  "commit": "2e5b27c"
}