{
  "transactions": [
    {
      "hash": "0x323ddc8c4687d95b86313fef7dc5e98539c94ac632aa00018dee7b86a97341e3",
      "transactionType": "CALL",
      "contractName": "LinkToken",
      "contractAddress": "0x779877A7B0D9E8603169DdbD7836e478b4624789",
      "function": "transferAndCall(address,uint256,bytes):(bool)",
      "arguments": [
        "0x8103B0A8A00be2DDC778e6e7eaa21791Cd364625",
        "10000000000000000000",
        "0x0000000000000000000000000000000000000000000000000000000000002149"
      ],
      "transaction": {
        "type": "0x02",
        "from": "0x7064d4726f4b5b23e0b19de8ceb786f3eb1a5c85",
        "to": "0x779877a7b0d9e8603169ddbd7836e478b4624789",
        "gas": "0x13fbe",
        "value": "0x0",
        "data": "0x4000aea00000000000000000000000008103b0a8a00be2ddc778e6e7eaa21791cd3646250000000000000000000000000000000000000000000000008ac7230489e80000000000000000000000000000000000000000000000000000000000000000006000000000000000000000000000000000000000000000000000000000000000200000000000000000000000000000000000000000000000000000000000002149",
        "nonce": "0x9",
        "accessList": []
      },
      "additionalContracts": [],
      "isFixedGasLimit": false
    }
  ],
  "receipts": [],
  "libraries": [],
  "pending": [
    "0x323ddc8c4687d95b86313fef7dc5e98539c94ac632aa00018dee7b86a97341e3"
  ],
  "returns": {},
  "timestamp": 1705140406,
  "chain": 11155111,
  "multi": false,
  "commit": "2e5b27c"
}