{
  "transactions": [
    {
      "hash": "0x3680298c5dc1f66fdc374c4e8cd5f8baf63d09eb04dddee120c628be268803d9",
      "transactionType": "CALL",
      "contractName": "LinkToken",
      "contractAddress": "0x779877A7B0D9E8603169DdbD7836e478b4624789",
      "function": "transferAndCall(address,uint256,bytes):(bool)",
      "arguments": [
        "0x8103B0A8A00be2DDC778e6e7eaa21791Cd364625",
        "100000000000000000",
        "0x0000000000000000000000000000000000000000000000000000000000002149"
      ],
      "transaction": {
        "type": "0x02",
        "from": "0x7064d4726f4b5b23e0b19de8ceb786f3eb1a5c85",
        "to": "0x779877a7b0d9e8603169ddbd7836e478b4624789",
        "gas": "0x1b43f",
        "value": "0x0",
        "data": "0x4000aea00000000000000000000000008103b0a8a00be2ddc778e6e7eaa21791cd364625000000000000000000000000000000000000000000000000016345785d8a0000000000000000000000000000000000000000000000000000000000000000006000000000000000000000000000000000000000000000000000000000000000200000000000000000000000000000000000000000000000000000000000002149",
        "nonce": "0x8",
        "accessList": []
      },
      "additionalContracts": [],
      "isFixedGasLimit": false
    }
  ],
  "receipts": [],
  "libraries": [],
  "pending": [
    "0x3680298c5dc1f66fdc374c4e8cd5f8baf63d09eb04dddee120c628be268803d9"
  ],
  "returns": {},
  "timestamp": 1705140290,
  "chain": 11155111,
  "multi": false,
  "commit": "2e5b27c"
}